{
  "_format": "hh-sol-artifact-1",
  "contractName": "Web3RSVP",
  "sourceName": "contracts/Web3RSVP.sol",
  "abi": [
    {
      "anonymous": false,
      "inputs": [
        {
          "indexed": false,
          "internalType": "bytes32",
          "name": "eventID",
          "type": "bytes32"
        },
        {
          "indexed": false,
          "internalType": "address",
          "name": "attendeeAddress",
          "type": "address"
        }
      ],
      "name": "ConfirmedAttendee",
      "type": "event"
    },
    {
      "anonymous": false,
      "inputs": [
        {
          "indexed": false,
          "internalType": "bytes32",
          "name": "eventID",
          "type": "bytes32"
        }
      ],
      "name": "DepositsPaidOut",
      "type": "event"
    },
    {
      "anonymous": false,
      "inputs": [
        {
          "indexed": false,
          "internalType": "bytes32",
          "name": "eventID",
          "type": "bytes32"
        },
        {
          "indexed": false,
          "internalType": "address",
          "name": "creatorAddress",
          "type": "address"
        },
        {
          "indexed": false,
          "internalType": "uint256",
          "name": "eventTimestamp",
          "type": "uint256"
        },
        {
          "indexed": false,
          "internalType": "uint256",
          "name": "maxCapacity",
          "type": "uint256"
        },
        {
          "indexed": false,
          "internalType": "uint256",
          "name": "deposit",
          "type": "uint256"
        },
        {
          "indexed": false,
          "internalType": "string",
          "name": "eventDataCID",
          "type": "string"
        }
      ],
      "name": "NewEventCreated",
      "type": "event"
    },
    {
      "anonymous": false,
      "inputs": [
        {
          "indexed": false,
          "internalType": "bytes32",
          "name": "eventID",
          "type": "bytes32"
        },
        {
          "indexed": false,
          "internalType": "address",
          "name": "attendeeAddress",
          "type": "address"
        }
      ],
      "name": "NewRSVP",
      "type": "event"
    },
    {
      "inputs": [
        {
          "internalType": "bytes32",
          "name": "eventID",
          "type": "bytes32"
        }
      ],
      "name": "confirmAllAttendees",
      "outputs": [],
      "stateMutability": "nonpayable",
      "type": "function"
    },
    {
      "inputs": [
        {
          "internalType": "bytes32",
          "name": "eventID",
          "type": "bytes32"
        },
        {
          "internalType": "address",
          "name": "attendee",
          "type": "address"
        }
      ],
      "name": "confirmAttendee",
      "outputs": [],
      "stateMutability": "nonpayable",
      "type": "function"
    },
    {
      "inputs": [
        {
          "internalType": "uint256",
          "name": "eventTimestamp",
          "type": "uint256"
        },
        {
          "internalType": "uint256",
          "name": "deposit",
          "type": "uint256"
        },
        {
          "internalType": "uint256",
          "name": "maxCapacity",
          "type": "uint256"
        },
        {
          "internalType": "string",
          "name": "eventDataCID",
          "type": "string"
        }
      ],
      "name": "createNewEvent",
      "outputs": [],
      "stateMutability": "nonpayable",
      "type": "function"
    },
    {
      "inputs": [
        {
          "internalType": "bytes32",
          "name": "eventID",
          "type": "bytes32"
        }
      ],
      "name": "createNewRSVP",
      "outputs": [],
      "stateMutability": "payable",
      "type": "function"
    },
    {
      "inputs": [
        {
          "internalType": "bytes32",
          "name": "",
          "type": "bytes32"
        }
      ],
      "name": "eventCollection",
      "outputs": [
        {
          "internalType": "bytes32",
          "name": "eventID",
          "type": "bytes32"
        },
        {
          "internalType": "string",
          "name": "eventDataCID",
          "type": "string"
        },
        {
          "internalType": "address",
          "name": "eventOwner",
          "type": "address"
        },
        {
          "internalType": "uint256",
          "name": "eventTimestamp",
          "type": "uint256"
        },
        {
          "internalType": "uint256",
          "name": "deposit",
          "type": "uint256"
        },
        {
          "internalType": "uint256",
          "name": "maxCapacity",
          "type": "uint256"
        },
        {
          "internalType": "bool",
          "name": "paidOut",
          "type": "bool"
        }
      ],
      "stateMutability": "view",
      "type": "function"
    },
    {
      "inputs": [
        {
          "internalType": "bytes32",
          "name": "eventID",
          "type": "bytes32"
        }
      ],
      "name": "withdrawUnclaimedDeposits",
      "outputs": [],
      "stateMutability": "nonpayable",
      "type": "function"
    }
  ],
  "bytecode": "0x608060405234801561001057600080fd5b50612298806100206000396000f3fe6080604052600436106100545760003560e01c806292098c1461005957806317f0165a146100825780636dcdf2cd1461009e57806378dcd81d146100c7578063797475711461010a578063acdbe01214610133575b600080fd5b34801561006557600080fd5b50610080600480360381019061007b91906115bc565b61015c565b005b61009c6004803603810190610097919061167a565b6103d0565b005b3480156100aa57600080fd5b506100c560048036038101906100c09190611705565b610637565b005b3480156100d357600080fd5b506100ee60048036038101906100e9919061167a565b610b10565b6040516101019796959493929190611826565b60405180910390f35b34801561011657600080fd5b50610131600480360381019061012c919061167a565b610c07565b005b34801561013f57600080fd5b5061015a6004803603810190610155919061167a565b6110bf565b005b60003330878787604051602001610177959493929190611905565b604051602081830303815290604052805190602001209050600080600083815260200190815260200160002060030154146101e7576040517f08c379a00000000000000000000000000000000000000000000000000000000081526004016101de906119b0565b60405180910390fd5b60608060405180610120016040528084815260200186868080601f016020809104026020016040519081016040528093929190818152602001838380828437600081840152601f19601f8201169050808301925050505050505081526020013373ffffffffffffffffffffffffffffffffffffffff168152602001898152602001888152602001878152602001838152602001828152602001600015158152506000808581526020019081526020016000206000820151816000015560208201518160010190805190602001906102bf9291906113ea565b5060408201518160020160006101000a81548173ffffffffffffffffffffffffffffffffffffffff021916908373ffffffffffffffffffffffffffffffffffffffff160217905550606082015181600301556080820151816004015560a0820151816005015560c0820151816006019080519060200190610341929190611470565b5060e082015181600701908051906020019061035e929190611470565b506101008201518160080160006101000a81548160ff0219169083151502179055509050507f2553138c3f9c9008f266dbdbe9fc64f5b71e098d06ef714a190a65a8b9fc6bf383338a898b8a8a6040516103be9796959493929190611a0c565b60405180910390a15050505050505050565b600080600083815260200190815260200160002090508060040154341461042c576040517f08c379a000000000000000000000000000000000000000000000000000000000815260040161042390611ac2565b60405180910390fd5b8060030154421115610473576040517f08c379a000000000000000000000000000000000000000000000000000000000815260040161046a90611b2e565b60405180910390fd5b80600501548160060180549050106104c0576040517f08c379a00000000000000000000000000000000000000000000000000000000081526004016104b790611b9a565b60405180910390fd5b60005b8160060180549050811015610594573373ffffffffffffffffffffffffffffffffffffffff168260060182815481106104ff576104fe611bba565b5b9060005260206000200160009054906101000a900473ffffffffffffffffffffffffffffffffffffffff1673ffffffffffffffffffffffffffffffffffffffff161415610581576040517f08c379a000000000000000000000000000000000000000000000000000000000815260040161057890611c35565b60405180910390fd5b808061058c90611c84565b9150506104c3565b5080600601339080600181540180825580915050600190039060005260206000200160009091909190916101000a81548173ffffffffffffffffffffffffffffffffffffffff021916908373ffffffffffffffffffffffffffffffffffffffff1602179055507fb79f4240bbdd272d98e02a5db7f0cf156e5fc000961c517670a26eeeec63ed90823360405161062b929190611ccd565b60405180910390a15050565b600080600084815260200190815260200160002090508060020160009054906101000a900473ffffffffffffffffffffffffffffffffffffffff1673ffffffffffffffffffffffffffffffffffffffff163373ffffffffffffffffffffffffffffffffffffffff16146106df576040517f08c379a00000000000000000000000000000000000000000000000000000000081526004016106d690611d42565b60405180910390fd5b600080600090505b82600601805490508160ff1610156107ca578373ffffffffffffffffffffffffffffffffffffffff16836006018260ff168154811061072957610728611bba565b5b9060005260206000200160009054906101000a900473ffffffffffffffffffffffffffffffffffffffff1673ffffffffffffffffffffffffffffffffffffffff1614156107b757826006018160ff168154811061078957610788611bba565b5b9060005260206000200160009054906101000a900473ffffffffffffffffffffffffffffffffffffffff1691505b80806107c290611d6f565b9150506106e7565b508273ffffffffffffffffffffffffffffffffffffffff168173ffffffffffffffffffffffffffffffffffffffff1614610839576040517f08c379a000000000000000000000000000000000000000000000000000000000815260040161083090611de5565b60405180910390fd5b60005b82600701805490508160ff161015610913578373ffffffffffffffffffffffffffffffffffffffff16836007018260ff168154811061087e5761087d611bba565b5b9060005260206000200160009054906101000a900473ffffffffffffffffffffffffffffffffffffffff1673ffffffffffffffffffffffffffffffffffffffff161415610900576040517f08c379a00000000000000000000000000000000000000000000000000000000081526004016108f790611e51565b60405180910390fd5b808061090b90611d6f565b91505061083c565b50600015158260080160009054906101000a900460ff1615151461096c576040517f08c379a000000000000000000000000000000000000000000000000000000000815260040161096390611ebd565b60405180910390fd5b81600701839080600181540180825580915050600190039060005260206000200160009091909190916101000a81548173ffffffffffffffffffffffffffffffffffffffff021916908373ffffffffffffffffffffffffffffffffffffffff16021790555060008373ffffffffffffffffffffffffffffffffffffffff1683600401546040516109fb90611f0e565b60006040518083038185875af1925050503d8060008114610a38576040519150601f19603f3d011682016040523d82523d6000602084013e610a3d565b606091505b5050905080610a905782600701805480610a5a57610a59611f23565b5b6001900381819060005260206000200160006101000a81549073ffffffffffffffffffffffffffffffffffffffff021916905590555b80610ad0576040517f08c379a0000000000000000000000000000000000000000000000000000000008152600401610ac790611f9e565b60405180910390fd5b7ff8d1583a733d83bdd3ef5464129d0a95a36d62b382d31c6d0467a61f4264381b8585604051610b01929190611ccd565b60405180910390a15050505050565b6000602052806000526040600020600091509050806000015490806001018054610b3990611fed565b80601f0160208091040260200160405190810160405280929190818152602001828054610b6590611fed565b8015610bb25780601f10610b8757610100808354040283529160200191610bb2565b820191906000526020600020905b815481529060010190602001808311610b9557829003601f168201915b5050505050908060020160009054906101000a900473ffffffffffffffffffffffffffffffffffffffff16908060030154908060040154908060050154908060080160009054906101000a900460ff16905087565b60008060008381526020019081526020016000206040518061012001604052908160008201548152602001600182018054610c4190611fed565b80601f0160208091040260200160405190810160405280929190818152602001828054610c6d90611fed565b8015610cba5780601f10610c8f57610100808354040283529160200191610cba565b820191906000526020600020905b815481529060010190602001808311610c9d57829003601f168201915b505050505081526020016002820160009054906101000a900473ffffffffffffffffffffffffffffffffffffffff1673ffffffffffffffffffffffffffffffffffffffff1673ffffffffffffffffffffffffffffffffffffffff16815260200160038201548152602001600482015481526020016005820154815260200160068201805480602002602001604051908101604052809291908181526020018280548015610dbc57602002820191906000526020600020905b8160009054906101000a900473ffffffffffffffffffffffffffffffffffffffff1673ffffffffffffffffffffffffffffffffffffffff1681526020019060010190808311610d72575b5050505050815260200160078201805480602002602001604051908101604052809291908181526020018280548015610e4a57602002820191906000526020600020905b8160009054906101000a900473ffffffffffffffffffffffffffffffffffffffff1673ffffffffffffffffffffffffffffffffffffffff1681526020019060010190808311610e00575b505050505081526020016008820160009054906101000a900460ff161515151581525050905080610100015115610eb6576040517f08c379a0000000000000000000000000000000000000000000000000000000008152600401610ead9061206b565b60405180910390fd5b62093a808160600151610ec9919061208b565b421015610f0b576040517f08c379a0000000000000000000000000000000000000000000000000000000008152600401610f029061212d565b60405180910390fd5b806040015173ffffffffffffffffffffffffffffffffffffffff163373ffffffffffffffffffffffffffffffffffffffff1614610f7d576040517f08c379a0000000000000000000000000000000000000000000000000000000008152600401610f7490612199565b60405180910390fd5b60008160e00151518260c0015151610f9591906121b9565b90506000826080015182610fa991906121ed565b905060018361010001901515908115158152505060003373ffffffffffffffffffffffffffffffffffffffff1682604051610fe390611f0e565b60006040518083038185875af1925050503d8060008114611020576040519150601f19603f3d011682016040523d82523d6000602084013e611025565b606091505b5050905080611041576000846101000190151590811515815250505b80611081576040517f08c379a000000000000000000000000000000000000000000000000000000000815260040161107890611f9e565b60405180910390fd5b7f393073ea1365f611c3d2f240c992960d2b99dc81715555d3fc40fc55ba80af9c856040516110b09190612247565b60405180910390a15050505050565b600080600083815260200190815260200160002060405180610120016040529081600082015481526020016001820180546110f990611fed565b80601f016020809104026020016040519081016040528092919081815260200182805461112590611fed565b80156111725780601f1061114757610100808354040283529160200191611172565b820191906000526020600020905b81548152906001019060200180831161115557829003601f168201915b505050505081526020016002820160009054906101000a900473ffffffffffffffffffffffffffffffffffffffff1673ffffffffffffffffffffffffffffffffffffffff1673ffffffffffffffffffffffffffffffffffffffff1681526020016003820154815260200160048201548152602001600582015481526020016006820180548060200260200160405190810160405280929190818152602001828054801561127457602002820191906000526020600020905b8160009054906101000a900473ffffffffffffffffffffffffffffffffffffffff1673ffffffffffffffffffffffffffffffffffffffff168152602001906001019080831161122a575b505050505081526020016007820180548060200260200160405190810160405280929190818152602001828054801561130257602002820191906000526020600020905b8160009054906101000a900473ffffffffffffffffffffffffffffffffffffffff1673ffffffffffffffffffffffffffffffffffffffff16815260200190600101908083116112b8575b505050505081526020016008820160009054906101000a900460ff1615151515815250509050806040015173ffffffffffffffffffffffffffffffffffffffff163373ffffffffffffffffffffffffffffffffffffffff161461139a576040517f08c379a000000000000000000000000000000000000000000000000000000000815260040161139190611d42565b60405180910390fd5b60005b8160c00151518110156113e5576113d2838360c0015183815181106113c5576113c4611bba565b5b6020026020010151610637565b80806113dd90611c84565b91505061139d565b505050565b8280546113f690611fed565b90600052602060002090601f016020900481019282611418576000855561145f565b82601f1061143157805160ff191683800117855561145f565b8280016001018555821561145f579182015b8281111561145e578251825591602001919060010190611443565b5b50905061146c91906114fa565b5090565b8280548282559060005260206000209081019282156114e9579160200282015b828111156114e85782518260006101000a81548173ffffffffffffffffffffffffffffffffffffffff021916908373ffffffffffffffffffffffffffffffffffffffff16021790555091602001919060010190611490565b5b5090506114f691906114fa565b5090565b5b808211156115135760008160009055506001016114fb565b5090565b600080fd5b600080fd5b6000819050919050565b61153481611521565b811461153f57600080fd5b50565b6000813590506115518161152b565b92915050565b600080fd5b600080fd5b600080fd5b60008083601f84011261157c5761157b611557565b5b8235905067ffffffffffffffff8111156115995761159861155c565b5b6020830191508360018202830111156115b5576115b4611561565b5b9250929050565b6000806000806000608086880312156115d8576115d7611517565b5b60006115e688828901611542565b95505060206115f788828901611542565b945050604061160888828901611542565b935050606086013567ffffffffffffffff8111156116295761162861151c565b5b61163588828901611566565b92509250509295509295909350565b6000819050919050565b61165781611644565b811461166257600080fd5b50565b6000813590506116748161164e565b92915050565b6000602082840312156116905761168f611517565b5b600061169e84828501611665565b91505092915050565b600073ffffffffffffffffffffffffffffffffffffffff82169050919050565b60006116d2826116a7565b9050919050565b6116e2816116c7565b81146116ed57600080fd5b50565b6000813590506116ff816116d9565b92915050565b6000806040838503121561171c5761171b611517565b5b600061172a85828601611665565b925050602061173b858286016116f0565b9150509250929050565b61174e81611644565b82525050565b600081519050919050565b600082825260208201905092915050565b60005b8381101561178e578082015181840152602081019050611773565b8381111561179d576000848401525b50505050565b6000601f19601f8301169050919050565b60006117bf82611754565b6117c9818561175f565b93506117d9818560208601611770565b6117e2816117a3565b840191505092915050565b6117f6816116c7565b82525050565b61180581611521565b82525050565b60008115159050919050565b6118208161180b565b82525050565b600060e08201905061183b600083018a611745565b818103602083015261184d81896117b4565b905061185c60408301886117ed565b61186960608301876117fc565b61187660808301866117fc565b61188360a08301856117fc565b61189060c0830184611817565b98975050505050505050565b60008160601b9050919050565b60006118b48261189c565b9050919050565b60006118c6826118a9565b9050919050565b6118de6118d9826116c7565b6118bb565b82525050565b6000819050919050565b6118ff6118fa82611521565b6118e4565b82525050565b600061191182886118cd565b60148201915061192182876118cd565b60148201915061193182866118ee565b60208201915061194182856118ee565b60208201915061195182846118ee565b6020820191508190509695505050505050565b7f414c524541445920524547495354455245440000000000000000000000000000600082015250565b600061199a60128361175f565b91506119a582611964565b602082019050919050565b600060208201905081810360008301526119c98161198d565b9050919050565b82818337600083830152505050565b60006119eb838561175f565b93506119f88385846119d0565b611a01836117a3565b840190509392505050565b600060c082019050611a21600083018a611745565b611a2e60208301896117ed565b611a3b60408301886117fc565b611a4860608301876117fc565b611a5560808301866117fc565b81810360a0830152611a688184866119df565b905098975050505050505050565b7f4e4f5420454e4f55474800000000000000000000000000000000000000000000600082015250565b6000611aac600a8361175f565b9150611ab782611a76565b602082019050919050565b60006020820190508181036000830152611adb81611a9f565b9050919050565b7f414c52454144592048415050454e454400000000000000000000000000000000600082015250565b6000611b1860108361175f565b9150611b2382611ae2565b602082019050919050565b60006020820190508181036000830152611b4781611b0b565b9050919050565b7f54686973206576656e7420686173207265616368656420636170616369747900600082015250565b6000611b84601f8361175f565b9150611b8f82611b4e565b602082019050919050565b60006020820190508181036000830152611bb381611b77565b9050919050565b7f4e487b7100000000000000000000000000000000000000000000000000000000600052603260045260246000fd5b7f414c524541445920434f4e4649524d4544000000000000000000000000000000600082015250565b6000611c1f60118361175f565b9150611c2a82611be9565b602082019050919050565b60006020820190508181036000830152611c4e81611c12565b9050919050565b7f4e487b7100000000000000000000000000000000000000000000000000000000600052601160045260246000fd5b6000611c8f82611521565b91507fffffffffffffffffffffffffffffffffffffffffffffffffffffffffffffffff821415611cc257611cc1611c55565b5b600182019050919050565b6000604082019050611ce26000830185611745565b611cef60208301846117ed565b9392505050565b7f4e4f5420415554484f52495a4544000000000000000000000000000000000000600082015250565b6000611d2c600e8361175f565b9150611d3782611cf6565b602082019050919050565b60006020820190508181036000830152611d5b81611d1f565b9050919050565b600060ff82169050919050565b6000611d7a82611d62565b915060ff821415611d8e57611d8d611c55565b5b600182019050919050565b7f4e4f205253565020544f20434f4e4649524d0000000000000000000000000000600082015250565b6000611dcf60128361175f565b9150611dda82611d99565b602082019050919050565b60006020820190508181036000830152611dfe81611dc2565b9050919050565b7f414c524541445920434c41494d45440000000000000000000000000000000000600082015250565b6000611e3b600f8361175f565b9150611e4682611e05565b602082019050919050565b60006020820190508181036000830152611e6a81611e2e565b9050919050565b7f414c52454144592050414944204f555400000000000000000000000000000000600082015250565b6000611ea760108361175f565b9150611eb282611e71565b602082019050919050565b60006020820190508181036000830152611ed681611e9a565b9050919050565b600081905092915050565b50565b6000611ef8600083611edd565b9150611f0382611ee8565b600082019050919050565b6000611f1982611eeb565b9150819050919050565b7f4e487b7100000000000000000000000000000000000000000000000000000000600052603160045260246000fd5b7f4661696c656420746f2073656e64204574686572000000000000000000000000600082015250565b6000611f8860148361175f565b9150611f9382611f52565b602082019050919050565b60006020820190508181036000830152611fb781611f7b565b9050919050565b7f4e487b7100000000000000000000000000000000000000000000000000000000600052602260045260246000fd5b6000600282049050600182168061200557607f821691505b6020821081141561201957612018611fbe565b5b50919050565b7f414c524541445920504149440000000000000000000000000000000000000000600082015250565b6000612055600c8361175f565b91506120608261201f565b602082019050919050565b6000602082019050818103600083015261208481612048565b9050919050565b600061209682611521565b91506120a183611521565b9250827fffffffffffffffffffffffffffffffffffffffffffffffffffffffffffffffff038211156120d6576120d5611c55565b5b828201905092915050565b7f544f4f204541524c590000000000000000000000000000000000000000000000600082015250565b600061211760098361175f565b9150612122826120e1565b602082019050919050565b600060208201905081810360008301526121468161210a565b9050919050565b7f4d555354204245204556454e54204f574e455200000000000000000000000000600082015250565b600061218360138361175f565b915061218e8261214d565b602082019050919050565b600060208201905081810360008301526121b281612176565b9050919050565b60006121c482611521565b91506121cf83611521565b9250828210156121e2576121e1611c55565b5b828203905092915050565b60006121f882611521565b915061220383611521565b9250817fffffffffffffffffffffffffffffffffffffffffffffffffffffffffffffffff048311821515161561223c5761223b611c55565b5b828202905092915050565b600060208201905061225c6000830184611745565b9291505056fea2646970667358221220ac448d6f334a7c47d03ed30d05fb39dd87b136b488e2786fb076ab87239ec54d64736f6c63430008090033",
  "linkReferences": {},
  "deployedLinkReferences": {}
}